{
  "_format": "hh3-artifact-1",
  "contractName": "PayoutSplitter",
  "sourceName": "contracts/PayoutSplitter.sol",
  "abi": [
    {
      "inputs": [],
      "stateMutability": "nonpayable",
      "type": "constructor"
    },
    {
      "anonymous": false,
      "inputs": [
        {
          "indexed": true,
          "internalType": "address",
          "name": "token",
          "type": "address"
        },
        {
          "indexed": true,
          "internalType": "address",
          "name": "payer",
          "type": "address"
        },
        {
          "indexed": true,
          "internalType": "address",
          "name": "worker",
          "type": "address"
        },
        {
          "indexed": false,
          "internalType": "address",
          "name": "platform",
          "type": "address"
        },
        {
          "indexed": false,
          "internalType": "uint256",
          "name": "netAmount",
          "type": "uint256"
        },
        {
          "indexed": false,
          "internalType": "uint256",
          "name": "feeAmount",
          "type": "uint256"
        }
      ],
      "name": "Payout",
      "type": "event"
    },
    {
      "anonymous": false,
      "inputs": [
        {
          "indexed": true,
          "internalType": "address",
          "name": "token",
          "type": "address"
        },
        {
          "indexed": true,
          "internalType": "address",
          "name": "payer",
          "type": "address"
        },
        {
          "indexed": true,
          "internalType": "address",
          "name": "worker",
          "type": "address"
        },
        {
          "indexed": false,
          "internalType": "address",
          "name": "platform",
          "type": "address"
        },
        {
          "indexed": false,
          "internalType": "address",
          "name": "proofwork",
          "type": "address"
        },
        {
          "indexed": false,
          "internalType": "uint256",
          "name": "netAmount",
          "type": "uint256"
        },
        {
          "indexed": false,
          "internalType": "uint256",
          "name": "platformFeeAmount",
          "type": "uint256"
        },
        {
          "indexed": false,
          "internalType": "uint256",
          "name": "proofworkFeeAmount",
          "type": "uint256"
        }
      ],
      "name": "PayoutV2",
      "type": "event"
    },
    {
      "inputs": [],
      "name": "owner",
      "outputs": [
        {
          "internalType": "address",
          "name": "",
          "type": "address"
        }
      ],
      "stateMutability": "view",
      "type": "function"
    },
    {
      "inputs": [],
      "name": "paused",
      "outputs": [
        {
          "internalType": "bool",
          "name": "",
          "type": "bool"
        }
      ],
      "stateMutability": "view",
      "type": "function"
    },
    {
      "inputs": [
        {
          "internalType": "address",
          "name": "token",
          "type": "address"
        },
        {
          "internalType": "address",
          "name": "worker",
          "type": "address"
        },
        {
          "internalType": "address",
          "name": "platform",
          "type": "address"
        },
        {
          "internalType": "uint256",
          "name": "net",
          "type": "uint256"
        },
        {
          "internalType": "uint256",
          "name": "fee",
          "type": "uint256"
        }
      ],
      "name": "payout",
      "outputs": [],
      "stateMutability": "nonpayable",
      "type": "function"
    },
    {
      "inputs": [
        {
          "internalType": "address",
          "name": "token",
          "type": "address"
        },
        {
          "internalType": "address",
          "name": "worker",
          "type": "address"
        },
        {
          "internalType": "address",
          "name": "platform",
          "type": "address"
        },
        {
          "internalType": "address",
          "name": "proofwork",
          "type": "address"
        },
        {
          "internalType": "uint256",
          "name": "net",
          "type": "uint256"
        },
        {
          "internalType": "uint256",
          "name": "platformFee",
          "type": "uint256"
        },
        {
          "internalType": "uint256",
          "name": "proofworkFee",
          "type": "uint256"
        }
      ],
      "name": "payoutV2",
      "outputs": [],
      "stateMutability": "nonpayable",
      "type": "function"
    },
    {
      "inputs": [
        {
          "internalType": "bool",
          "name": "v",
          "type": "bool"
        }
      ],
      "name": "setPaused",
      "outputs": [],
      "stateMutability": "nonpayable",
      "type": "function"
    }
  ],
  "bytecode": "0x608060405234801561000f575f80fd5b505f80546101003302610100600160a81b03199091161790556108ac806100355f395ff3fe608060405234801561000f575f80fd5b5060043610610055575f3560e01c806316c38b3c146100595780635c975abb1461006e5780638da5cb5b1461008f578063b0e79a6e146100be578063d68d6b74146100d1575b5f80fd5b61006c61006736600461073f565b6100e4565b005b5f5461007a9060ff1681565b60405190151581526020015b60405180910390f35b5f546100a69061010090046001600160a01b031681565b6040516001600160a01b039091168152602001610086565b61006c6100cc36600461077c565b610145565b61006c6100df3660046107e6565b6104ce565b5f5461010090046001600160a01b031633146101335760405162461bcd60e51b81526020600482015260096024820152683737ba2fb7bbb732b960b91b60448201526064015b60405180910390fd5b5f805460ff1916911515919091179055565b5f5460ff16156101805760405162461bcd60e51b81526020600482015260066024820152651c185d5cd95960d21b604482015260640161012a565b6001600160a01b038616158015906101a057506001600160a01b03841615155b6101da5760405162461bcd60e51b815260206004820152600b60248201526a6261645f6164647265737360a81b604482015260640161012a565b8115610225576001600160a01b0385166102255760405162461bcd60e51b815260206004820152600c60248201526b6261645f706c6174666f726d60a01b604482015260640161012a565b82156102dd576040516323b872dd60e01b81526001600160a01b038816906323b872dd9061025b9033908a908890600401610837565b6020604051808303815f875af1158015610277573d5f803e3d5ffd5b505050506040513d601f19601f8201168201806040525081019061029b919061085b565b6102dd5760405162461bcd60e51b81526020600482015260136024820152721b995d17dd1c985b9cd9995c97d9985a5b1959606a1b604482015260640161012a565b811561039f576040516323b872dd60e01b81526001600160a01b038816906323b872dd9061031390339089908790600401610837565b6020604051808303815f875af115801561032f573d5f803e3d5ffd5b505050506040513d601f19601f82011682018060405250810190610353919061085b565b61039f5760405162461bcd60e51b815260206004820152601c60248201527f706c6174666f726d5f6665655f7472616e736665725f6661696c656400000000604482015260640161012a565b8015610461576040516323b872dd60e01b81526001600160a01b038816906323b872dd906103d590339088908690600401610837565b6020604051808303815f875af11580156103f1573d5f803e3d5ffd5b505050506040513d601f19601f82011682018060405250810190610415919061085b565b6104615760405162461bcd60e51b815260206004820152601d60248201527f70726f6f66776f726b5f6665655f7472616e736665725f6661696c6564000000604482015260640161012a565b604080516001600160a01b03878116825286811660208301529181018590526060810184905260808101839052818816913391908a16907fe2b92ed11d036c91ace45bcc1630d3c70e6767bf80e76401d069e3fc2fa557929060a00160405180910390a450505050505050565b5f5460ff16156105095760405162461bcd60e51b81526020600482015260066024820152651c185d5cd95960d21b604482015260640161012a565b6001600160a01b0384161580159061052957506001600160a01b03831615155b6105635760405162461bcd60e51b815260206004820152600b60248201526a6261645f6164647265737360a81b604482015260640161012a565b811561061b576040516323b872dd60e01b81526001600160a01b038616906323b872dd9061059990339088908790600401610837565b6020604051808303815f875af11580156105b5573d5f803e3d5ffd5b505050506040513d601f19601f820116820180604052508101906105d9919061085b565b61061b5760405162461bcd60e51b81526020600482015260136024820152721b995d17dd1c985b9cd9995c97d9985a5b1959606a1b604482015260640161012a565b80156106d3576040516323b872dd60e01b81526001600160a01b038616906323b872dd9061065190339087908690600401610837565b6020604051808303815f875af115801561066d573d5f803e3d5ffd5b505050506040513d601f19601f82011682018060405250810190610691919061085b565b6106d35760405162461bcd60e51b815260206004820152601360248201527219995957dd1c985b9cd9995c97d9985a5b1959606a1b604482015260640161012a565b604080516001600160a01b03858116825260208201859052918101839052818616913391908816907f2e240acfa049c5ae15baa6af9ed7b657fb60bef7ae4b627ddb151ffe4c3c6e219060600160405180910390a45050505050565b801515811461073c575f80fd5b50565b5f6020828403121561074f575f80fd5b813561075a8161072f565b9392505050565b80356001600160a01b0381168114610777575f80fd5b919050565b5f805f805f805f60e0888a031215610792575f80fd5b61079b88610761565b96506107a960208901610761565b95506107b760408901610761565b94506107c560608901610761565b9699959850939660808101359560a0820135955060c0909101359350915050565b5f805f805f60a086880312156107fa575f80fd5b61080386610761565b945061081160208701610761565b935061081f60408701610761565b94979396509394606081013594506080013592915050565b6001600160a01b039384168152919092166020820152604081019190915260600190565b5f6020828403121561086b575f80fd5b815161075a8161072f56fea26469706673582212202739b3e1cb8076803bd85a9cadbbd84e71b053ea974533d682069d566240c22b64736f6c63430008140033",
  "linkReferences": {},
  "deployedLinkReferences": {},
  "immutableReferences": {},
  "inputSourceName": "project/contracts/PayoutSplitter.sol",
  "buildInfoId": "solc-0_8_20-bea1083e17ca723263f3f6608ddf1ca78e666c68"
}